:020000040800F2
:10000000B1AA010000000000000000000000000094
:1000100000000000000000000000000000000000E0
:1000200000000000000000000000000000000000D0
:1000300000000000000000000000000000000000C0
:1000400000000000000000000000000000000000B0
:1000500000000000000000000000000000000000A0
:100060000000000000000000000000000000000090
:100070000000000000000000000000000000000080
:100080000000000000000000000000000000000070
:100090000000000000000000000000000000000060
:1000A0000000000000000000000000000000000050
:1000B0000000000000000000000000000000000040
:1000C0000000000000000000000000000000000030
:1000D0000000000000000000000000000000000020
:1000E0000000000000000000000000000000000010
:1000F0000000000000000000000000000000000000
:1001000000000000000000000000000000000000EF
:1001100000000000000000000000000000000000DF
:1001200000000000000000000000000000000000CF
:1001300000000000000000000000000000000000BF
:1001400000000000000000000000000000000000AF
:100150000000000000000000000000007370043088
:10016000170500001305C5FF8545F605637BB5003F
:1001700089816378B500170500001305C5002E9529
:1001800002859302002073A0027D970200009382F3
:1001900062E773907230975200009382E29A7390F4
:1001A000C27E73E0C07E975200009382A29173904A
:1001B0005230971100189381E1FE17810018130146
:1001C00061E417F500001305E54B970500189385CA
:1001D00065E3171600181306A68063FAC50083228C
:1001E000050023A0550011059105E3EAC5FE17059A
:1001F00000181305E57E971500189385258563770C
:10020000B500232005001105E36DB5FE73F0023241
:10021000176500001305E5AF97600000E780A0AB0D
:1002200097600000E78080B297200000E78040A937
:100230000145814597100000E78000AE176300007C
:10024000670063AA01A073E00232828073F0023279
:0402500082800000A8
:10028000307800000A50726F6772616D2068617388
:1002900020657869746564207769746820636F6489
:1002A000653A00006E6D690A0000000074726170AA
:1002B0000A00000000000000000000000040AF4005
:1002C0004641543332000000222A2B2C3A3B3C3D5D
:1002D0003E3F5B5D7C7F000025640000444154414B
:1002E0002E54585400000000000080380000000028
:1002F00000000000000069409A9999999999E93F96
:100300009A9999999999E13F0000000040775B41E3
:10031000D44D0000244D00002A4D0000244D000063
:10032000C64D0000244D00002A4D0000D44D0000B1
:10033000D44D0000C64D00002A4D00000A4D0000BB
:100340000A4D00000A4D00002E4D00007E520000B4
:100350007E52000096520000785200007852000051
:1003600024530000965200007852000024530000ED
:10037000785200009652000076520000765200003B
:100380007652000024530000D0560000D0560000E2
:10039000E8560000CC560000CC5600002E57000056
:1003A000E8560000CC5600002E570000CC56000046
:1003B000E8560000CA560000CA560000CA5600009F
:1003C0002E57000000010202030303030404040487
:1003D00004040404050505050505050505050505D1
:1003E00005050505060606060606060606060606B1
:1003F000060606060606060606060606060606069D
:100400000606060607070707070707070707070780
:10041000070707070707070707070707070707076C
:10042000070707070707070707070707070707075C
:10043000070707070707070707070707070707074C
:100440000707070708080808080808080808080830
:10045000080808080808080808080808080808081C
:10046000080808080808080808080808080808080C
:1004700008080808080808080808080808080808FC
:1004800008080808080808080808080808080808EC
:1004900008080808080808080808080808080808DC
:1004A00008080808080808080808080808080808CC
:1004B00008080808080808080808080808080808BC
:1004C0000808080890630000805C0000805C000061
:1004D00084630000805C0000805C0000805C0000A1
:1004E000105B0000805C0000805C00002263000064
:1004F00012630000805C0000CC5C00004A630000D6
:10050000805C00003E630000585C0000585C000006
:10051000585C0000585C0000585C0000585C00000B
:10052000585C0000585C0000585C0000805C0000D3
:10053000805C0000805C0000805C0000805C00004B
:10054000805C0000805C0000BC5D0000805C0000FE
:10055000D460000090600000BC5D0000BC5D000045
:10056000BC5D0000805C0000805C0000805C0000DE
:10057000805C000086600000805C0000805C000001
:1005800068600000805C0000805C0000805C00000F
:100590000C600000805C0000EC5F0000805C0000EC
:1005A000805C0000965C0000805C0000805C0000C5
:1005B000805C0000805C0000805C0000805C0000CB
:1005C000805C0000805C0000BC5D0000805C00007E
:1005D000D460000064620000BC5D0000BC5D0000EF
:1005E000BC5D00007A5D000064620000445B0000B6
:1005F000805C0000685D0000805C0000085D000019
:10060000D65C00008C5D0000445B0000805C000054
:100610000C6000003E5B0000A8630000805C0000EE
:10062000805C0000D85B0000805C00003E5B000046
:1006300020202020202020202020202020202020BA
:1006400030303030303030303030303030303030AA
:10065000494E4600696E66004E414E006E616E0066
:100660003031323334353637383961626364656628
:1006700000000000303132333435363738394142EA
:100680004344454600000000286E756C6C2900004C
:10069000300000000000000000000000000000002A
:1006A000000000000000000000000000000000004A
:1006B00000000000000000000080FF3F7665924AC5
:1006C0004A803F154CC99A97208A025260C425750A
:1006D000326A52CE9A32CE284DA7E45D3DC55D3BCD
:1006E0008B9E925A6C52CE508BF1283D0D65170CA3
:1006F0007581867576C9484D669CF85850BC545C27
:1007000065CCC6910EA6AEA019E3A3461E85B7EA36
:10071000FE981B90BBDD8DDEF99DFBEB7EAA51435D
:1007200035023701B1366C336FC6DF8CE980C947BB
:10073000BA93A841F850FB256BC7716BBF3CD5A697
:10074000CFFF491F78C2D340000000000000000026
:1007500020F09DB5702BA8ADC59D6940000000003C
:1007600000000000000000000004BFC91B8E3440E0
:100770000000000000000000000000000000002059
:10078000BCBE194000000000000000000000000096
:1007900000000000409C0C40000000000000000031
:1007A000000000000000000000C80540000000003C
:1007B00000000000000000000000000000A0024057
:1007C0003020FCCFC3A12381E32DDE9FCED2C8040D
:1007D000DDA6D80A6482CBD2EAF2D4122549E42DF0
:1007E00036344F53AECE6B253FF598F6D36B580198
:1007F000A687BDC057DAA582A6A2B53231E7D404D8
:10080000F2E332D332711CD223DB32EE49905A39F3
:100810003EA20853FBFE551191FA39197A6325431C
:1008200031C0AC3C6DE2DEDB5DD0F6B37CACA0E465
:10083000BC647C46D0DD553E202A2462B347D7985D
:10084000233FA5E939A527EA7FA82A3F5B0BF24A97
:1008500081A5ED18DE67BA943945AD1EB1CF943F3E
:1008600071BFB3A9897968BE2E4C5BE14DC4BE94BB
:1008700095E6C93F4D3D3D7CBA362B0DC2FDFCCE01
:1008800061841177CCABE43F55C1A8A44E401361FD
:10089000C3D32B6519E25817B7D1F13F0AD7A3701C
:1008A0003D0AD7A3703D0AD7A3703D0AD7A3F83FEE
:1008B000CDCCCCCCCCCCCCCCCCCCCCCCCCCCCCCC77
:1008C000CCCCFB3FFFFFFEFFFCFFF8FFF0FFE0FF9B
:1008D000C0FF80FF00FF00FE00FC00F800F000E019
:1008E00000C0008000000000204E614E200000008B
:1008F000202D496E66696E697479200020496E6604
:10090000696E6974792000004E614E0045256400CF
:1009100043000000504F5349580000002E000000D3
:1009200005000000190000007D000000000000002C
:10093000000000000000F03F000000000000244024
:1009400000000000000059400000000000408F40FF
:10095000000000000088C34000000000006AF8406A
:100960000000000080842E4100000000D01263418E
:100970000000000084D797410000000065CDCD4104
:10098000000000205FA00242000000E876483742E5
:10099000000000A2941A6D42000040E59C30A24283
:1009A0000000901EC4BCD64200003426F56B0C43F8
:1009B0000080E03779C3414300A0D885573476439F
:1009C00000C84E676DC1AB43003D9160E458E14300
:1009D000408CB5781DAF154450EFE2D6E41A4B4475
:1009E00092D54D06CFF08044F64AE1C7022DB544BA
:1009F000B49DD9794378EA44BC89D897B2D29C3C5B
:100A000033A7A8D523F649393DA7F444FD0FA532F5
:100A10009D978CCF08BA5B25436FAC642806C80A43
:100A20000080E03779C34143176E05B5B5B89346EA
:100A3000F5F93FE9034F384D321D30F94877825AB6
:100A40003CBF737FDD4F157534B4000084B10000E6
:100A500084B100002AB4000084B1000084B1000019
:100A600084B1000024B0000084B1000084B1000013
:100A700022B3000014B3000084B100000AB30000E8
:100A8000D4B2000084B10000CAB200005CB1000022
:100A90005CB100005CB100005CB100005CB1000022
:100AA0005CB100005CB100005CB100005CB1000012
:100AB00084B1000084B1000084B1000084B1000062
:100AC00084B1000084B1000084B1000084B1000052
:100AD00084B1000092B300003EB3000084B1000076
:100AE00084B1000084B1000084B1000084B1000032
:100AF00084B1000084B1000084B1000084B1000022
:100B000084B100008CB2000084B1000084B1000008
:100B100084B1000056B2000084B10000AAB2000007
:100B200084B1000084B10000D6B0000084B10000A0
:100B300084B1000084B1000084B1000084B10000E1
:100B400084B1000084B1000084B1000084B10000D1
:100B500084B1000092B300005EB5000084B10000D3
:100B600084B1000084B100004CB500005EB5000007
:100B700058B0000084B100003AB5000084B1000014
:100B800006B50000D6B40000B2B4000058B00000B2
:100B900084B1000056B2000052B000004AB4000018
:100BA00084B1000084B100007CB4000084B1000076
:100BB00052B00000202020202020202020202020B3
:100BC0002020202030303030303030303030303065
:100BD00030303030002020202020202020202828E5
:100BE00028282820202020202020202020202020ED
:100BF000202020202088101010101010101010102D
:100C0000101010101004040404040404040404105C
:100C100010101010101041414141414101010101EA
:100C200001010101010101010101010101010101B4
:100C300010101010101042424242424202020202C0
:100C40000202020202020202020202020202020284
:100C50001010101020000000000000000000000034
:100C60000000000000000000000000000000000084
:100C70000000000000000000000000000000000074
:100C80000000000000000000000000000000000064
:100C90000000000000000000000000000000000054
:100CA0000000000000000000000000000000000044
:100CB0000000000000000000000000000000000034
:100CC0000000000000000000000000000000000024
:100CD000000000000000000024D4000024D4000024
:100CE00022D40000F6D30000F6D30000ACD50000FB
:100CF00022D40000F6D30000ACD50000F6D30000EB
:100D000022D40000F4D30000F4D30000F4D3000098
:100D1000ACD50000757106C722C54AC1D6DADAD84B
:100D2000DED6EAD0EECE26C3CEDED2DCE2D4E6D2E8
:100D300097400000E780E0BD97100000E78020EEBC
:100D4000B707000803AD872B83ABC72BB707000895
:100D500003A8472F83A7072F3714014042CA3EC874
:100D6000B707000883A7872E2AC62ECC3ED6B70722
:100D7000000803A8C72F83A7872F6ACE42DA3ED880
:100D8000B707000803A8473083A707305ED042DECC
:100D90003EDCB707000803A8C73083A78730814D22
:100DA00042C23EC0814A02D402D2014B3719002010
:100DB0001304048093050004228597000000E78057
:100DC000404A85476300F50C631C0B0C971000002C
:100DD000E780E0E4AA892E8A63880A1605459740D1
:100DE0000000E78000B01305800C97100000E7803A
:100DF00000F0014597400000E780A0AE1305800C8D
:100E000097100000E780A0EE854A97100000E78069
:100E100000E1AA8733053541B3B7A700B385454143
:100E20009D8D97500000E78040932A8C0325099AF6
:100E3000AE8C97500000E780E08C6A86DE86974093
:100E40000000E78080D70246924697400000E78086
:100E5000A03F2A86AE866285E68597400000E7803F
:100E6000202AE359A0F46E8597400000E78080B403
:100E700093050004228597000000E780803E8547A7
:100E8000E314F5F4134B1B008544930500042285FD
:100E900097000000E780E03CE30995FEE3080BF2D1
:100EA000C80097300000E780E03DA644971000009E
:100EB000E780E0D63247AA87814A198D6247B3B7E7
:100EC000A700998D9D8D97500000E78000892A8C9E
:100ED0000325099AAE8C97500000E780A0827246E5
:100EE000825697400000E78040CD4246D246974068
:100EF0000000E78060352A86AE866285E6859740E9
:100F00000000E780E01FE352A0F0B255268597501D
:100F10000000E780E09A97500000E780E0C8425662
:100F2000D2562A8CAE8C97400000E780601D635536
:100F3000A002925702D4A9CF97100000E78020CEDC
:100F40002AC62ECC814AD1B56E8597400000E78035
:100F500060A602D402D259B56256F2566285E68581
:100F600097400000E7800024635E0500A25702D28C
:100F7000E1F705453ED2850D97400000E780609679
:100F80005AD45DBF014597400000E78080956DB75A
:100F900001453ED497400000E780A0945AD269BF33
:100FA00097F7FFF79387070689CB175500001305BE
:100FB00045D617530000670003D28280D4419C417C
:100FC000984583A8C50003A80501D58FD98FD449BA
:100FD000B3E717011841904DB3E70701D58F8D6630
:100FE00093860604758FD18FD98F1CC15C4D7D7798
:100FF0001307F77FF98F5CCD82801C4193E70704CC
:101000001CC182804CC58280484542054181828056
:101010001C410967D98F1CC10CC9828008456D8DA0
:101020003335A0008280B7170240135765003E9702
:1010300014438547B397A700D58F1CC38280B71789
:101040000240135765003E9714438547B397A700A6
:10105000D58F1CC38280B7170240135765003E9797
:1010600014438547B397A70093C7F7FFF58F1CC3B9
:101070008280B707030437070809011193871720F7
:10108000130767703ECC3EC23EC602C802CA3ACEC3
:1010900002C002C4B7160240D842B7177A00094608
:1010A00009830D8B93870720630DC7043717024010
:1010B00050435443584311820C103D8A2E960346E8
:1010C00006FFA1822D839D8A1D8B2E97AE96054823
:1010D00033D6C70083C506FE034787FE6301050BB1
:1010E00011CD8946B357B600630AD500751513357F
:1010F0001500B357E6003305A040E98F3E85056132
:101100008280D8421316F700635F0606D85613167E
:10111000F70063580602D856DC56454693564700FA
:10112000A183BD8BBD8A1387270085066313C70083
:101130005147B7177A0093870720B3D7D702B387F1
:10114000E702371702405857B71602403D8B050794
:10115000B3D7E702D842D4424983139626003D8B89
:1011600063410604BD466300D7040907631ED70226
:10117000139717003E9706078583BA9705BFB28776
:101180003E8505618280B7160240D842D442B71727
:101190003D00498313962600938707903D8BE353C8
:1011A00006FC136707010507B307F70201B793F7BA
:1011B000050193F8F50099C3B3E8C8008147854E4F
:1011C0003D4E930F80029302800421431396270023
:1011D0003397FE003318CE00758F1348F8FF33960F
:1011E000C80001CF032F05003378E80133660601FC
:1011F000638FF5056389550410C18507E39867FC83
:10120000854E3D4E930F8002930280044143139715
:10121000270001173396FE003318EE00758E134831
:10122000F8FF3397E80001CE032F45003378E8013B
:1012300033670701638FF5016389550058C185073E
:10124000E39767FC828018C945BF10C9C5BF58C95C
:1012500065B750C9E5B70CC982804CC98280084582
:101260006D8D3335A00082804111B717004006C64E
:10127000138707C0630DE5046371A7021387074056
:101280006305E50637370140130707C0630DE50620
:101290006309F508B2404101828037070040930698
:1012A0000740630ED508938707806308F50AE313A8
:1012B000E5FE1305004097000000E78080D8B240AB
:1012C00013050040410117030000670003D913050F
:1012D000304097000000E780C0D6B2401305304090
:1012E000410117030000670043D7130550409700E2
:1012F0000000E78000D5B2401305504041011703BC
:101300000000670083D51305B03097000000E78028
:1013100040D3B2401305B03041011703000067000D
:10132000C3D31305404097000000E78080D1B2404E
:1013300013054040410117030000670003D2130565
:10134000104097000000E780C0CFB2401305104066
:10135000410117030000670043D0130520409700A8
:101360000000E78000CEB240130520404101170382
:101370000000670083CEC167FD17232005002312FC
:1013800005001CC52316050023070500828083D7AE
:10139000050003D745001376F5BF1CD5B7370140CC
:1013A000938707C0418B6306F504FD779387F73F6A
:1013B000E98FB7060040638ED7021C41B716004084
:1013C000BD9B1CC11C415D8F18C19C455CD5630D44
:1013D000D600184183D7C5001377F7CF18C118413D
:1013E00093F70730D98F1CC15C4993E717005CC99C
:1013F0008280144183D725003718004093F6F6F811
:1014000014C1144193F70706D58F1CC11C415D8F91
:1014100018C19C455CD5E30906FD184183D7C5007A
:10142000B73601401377F7CF18C1104193F7073053
:10143000138706C0D18F1CC1E318E5FA83C7E50006
:1014400023A8F6C25C4993E717005CC982801C415F
:1014500093E717001CC182801C4193E707081CC159
:101460008280231005002311050023120500231399
:101470000500231405002315050082808547638538
:10148000F50CD9C589476387F5048D476393F50447
:101490001C517D777D17F98F1CD183570600185199
:1014A000F976B207D98F1CD11851FD168357460023
:1014B000758F18D11451B20737370140D58F1CD121
:1014C000930707C0630AF51E5C4D93F7F7CF5CCD19
:1014D000828082801451035706008357460093F69A
:1014E000F6EF14D114512207A207558F18D11451C9
:1014F00037370140930507C093F6F6DF14D1145136
:10150000D58F1CD16301B5145C4DF19B5CCD8280FD
:101510001C518356060003574600F99B1CD1032833
:101520000502B7370140938507C0B3E6060114D121
:101530001451F59A14D11451558F18D16307B50A77
:101540001C4DF19B1CCD828014510357060083571C
:101550004600BD9A14D1145112079207558F18D125
:10156000145137370140930507C093F6F6FD14D1A7
:101570001451D58F1CD16307B5001C4D93F7F7CFDD
:101580001CCD82800C51835626008357660093F54C
:10159000F5FB0CD10C5192069207CD8E14D10C5153
:1015A0008356860093F5F5F70CD10C518A06CD8F42
:1015B0001CD1832547C08357A60093F5F5BF23228E
:1015C000B7C0032647C08A07D18E2322D7C08326FF
:1015D00047C07D761306F67FF18E2322D7C083267F
:1015E00047C0D58F2322F7C049BF185103582600A2
:1015F000835566006D9B18D18328050283568600AB
:101600000357A600336818012320050310515D9A83
:1016100010D11051D18D0CD103A647C01376F6EF2F
:1016200023A2C7C003A647C0D18E23A2D7C083A6DA
:1016300047C093F6F6DF23A2D7C083A647C0558FD5
:1016400023A2E7C0F5BD0C5183572600FD7693F524
:10165000F5BF0CD10C51A2079388F67FCD8F1CD11A
:10166000032805029385F6FF83576600B3761801B9
:1016700014D103280502A20783568600B3E70701A9
:101680001CD1832747C09206FD8D2322B7C0832536
:1016900047C08357A6007976CD8E2322D7C08326F4
:1016A00047C07D169207F18E2322D7C0832647C0FC
:1016B000D58F2322F7C089BD832747C0F176FD1659
:1016C000F58F2322F7C083578600832647C09A07E9
:1016D000D58F2322F7C0CDBB85476384F502A1C512
:1016E0008947638AF5028D47639CF5005C4D6577F9
:1016F0007D17F98F5CCD5C4D22065D8E50CD8280CA
:1017000082801C4D65777D17F98F1CCD1C4D2206FC
:101710005D8E10CD82805C4D93F7F7F85CCD5C4D0B
:101720005D8E50CD82801C4D93F7F7F81CCD1C4D7B
:101730005D8E10CD82808547638CF50091CD894701
:10174000638AF5008D476394F50030C18280828002
:1017500010DD828050DD828050D98280854763858C
:10176000F502A9C58947638CF5028D47639DF50095
:101770005C4D7D771307F77FF98F5CCD5C4D2206BA
:101780005D8E50CD828082801C4D7D771307F77F60
:10179000F98F1CCD1C4D22065D8E10CD82805C4DD4
:1017A000DD9B5CCD5C4D5D8E50CD82801C4DDD9B04
:1017B0001CCD1C4D5D8E10CD8280411126C2AA84A5
:1017C000094522C44AC006C62E843289970000000B
:1017D000E780608AB7470F003707380393870724ED
:1017E0001307F797B357F502930660036363A700E7
:1017F000BE86D84061661306066A137707FC558FCC
:10180000D8C0636186048507130750036377F70226
:10181000930760039CD00604914733558502C04C62
:101820006373F500114552055181418DB240224448
:10183000C8CC024992444101828009476363F70E94
:1018400098D0D1BFB7270600938707A863EB87041A
:101850009307C012B386F6029307803EB3D6F60212
:10186000850694D06304090A93151400A2958E0589
:101870002E9433558502DC4C1167D98FDCCC93173D
:10188000450199E313651500DC4C2167B240D98FFF
:10189000DCCCC04C0249418D2244C8CC9244410169
:1018A000828093974600958F8E079306803EB3D72C
:1018B000D70285079CD06300090493151400A295F4
:1018C0008E052E9433558502DC4C1167D98FDCCC04
:1018D000DC4C2167B240D98FDCCCC04C0249418D31
:1018E000C8CC83A70409224493E7170023A8F4086F
:1018F000924441018280DC4C7177931514007D176E
:101900002E94F98F33558502DCCCD9B7DC4C717736
:10191000931514007D172E94F98F33558502DCCC76
:10192000B9BF9CD0CDBD85476387F5001C4193F7B7
:10193000F7BF1CC182801C4193E707401CC1828015
:10194000795793E715006314E60093F7E5FF1CC988
:1019500082801C4193E717001CC182801C4193E7E1
:1019600007101CC182801C4193E707201CC18280A4
:101970000CC9828008491375F50F828093D76500E2
:1019800093F7F73F3E9508413355B50005898280AE
:10199000930710506380F50213D765001377F73F64
:1019A0003A9518418547B397B70093C7F7FFF98F6A
:1019B0001CC182805C491C4D8280B717024098434D
:1019C000B706FFE0B1061367170098C3D843370680
:1019D000F7EA7D16758FD8C39843B706F7FEFD1654
:1019E000758F98C39843B706FCFFFD16758F98C393
:1019F000D843B70601DFFD16758FD8C323A60702AB
:101A000094433707FF00C165F18E94C398C798438C
:101A10009386F5FF371602404D8F98C311A099C6E3
:101A20001C42FD161397E700E35B07FEB717024061
:101A300098439316E70063D0060AD8433706C4DFFD
:101A40007D16D8C3D843B7160240D8C3D84313670E
:101A50000740D8C3D843718FD8C3D843370629204D
:101A6000518FD8C3D8573D76718FD8D7D857416694
:101A7000130616F1518FD8D7984337060004518FBB
:101A800098C39C4213974700E35D07FE9C423706CC
:101A9000001037170240D18F9CC21C439396270039
:101AA000E3DD06FE144337060001B7170240D18E6E
:101AB00014C3984393166700E3DD06FED843B716B8
:101AC0000240719BD8C3D84313672700D8C3DC42B8
:101AD000A18BF5DF828001A0797156CAAE8AB70565
:101AE000000809469385052822D426D24AD04ECE36
:101AF00052CC06D62A8A714497600000E78060269F
:101B0000BD492549F15405A093F7F60F7114054618
:101B10009305F1005285A307F10097600000E7806C
:101B20004024630F9402B3978900B3F75701B3D7EA
:101B3000870093F7F70F9386070313877703E375FF
:101B4000F9FC9377F70F711405469305F100528560
:101B5000A307F10097600000E780A020E31594FC44
:101B6000B250225492540259F249624AD24A456113
:101B70008280B71700209387479A94433717002035
:101B8000130787A43695636BE5003787002013079A
:101B900007806365A70088C336858280FD56368539
:101BA0008280B70700089387472803AF070083AEFA
:101BB000470003AE870003A3C70083A8070103A85B
:101BC0004701944F03D7C70183C7E701797179466D
:101BD00022D48A852A84094506D67AC076C272C480
:101BE0001AC646C842CA36CC231EE100230FF100B4
:101BF00097600000E780E016A28509459700000085
:101C0000E780C0EDB705000805469385052B09451B
:101C100097600000E780E01401A0B70700D1D84327
:101C20008843CC43E39DE5FE8280370700D2230042
:101C300007001205B71700D2A30507003E9563F70A
:101C4000A70023A00700C107E3EDA7FE8280F327CA
:101C5000503093F707FC93E737007390573082803A
:101C6000B7050008411115469385452A054506C666
:101C700097600000E780E00E054597000000E780D0
:101C800080F241119347F5FF22C406C6139747011E
:101C90002A8405C3B705000815469385C52A05455E
:101CA00097600000E780E00B228597000000E78046
:101CB00080EF97000000E780E0FAE9BF411106C617
:101CC00097000000E780A0CF130570059700000083
:101CD000E780E0F597000000E780A0F7B2404101FF
:101CE00017E3FFFF67006356828079714AD04ECEBA
:101CF0005EC606D622D426D252CC56CA5AC862C470
:101D000066C2AA8B97000000E78060F12A89AE893D
:101D100097000000E780A0F02A84AE846314A90035
:101D2000E388B9FEB707000803A9872B83A9C72B4F
:101D3000371B002097000000E78060EEAA87018D26
:101D4000B3B7A700858D9D8D97400000E780E0A088
:101D50002A8A03250B9AAE8A97400000E780809A72
:101D60004A86CE8697300000E78020E52A8C5E8583
:101D7000AE8C97400000E780E0982A86AE866285A8
:101D8000E68597300000E780204C2A86AE86528593
:101D9000D68597300000E780E040E34D05F8B2506B
:101DA000225492540259F249624AD24A424BB24BEF
:101DB000224C924C45618280411122C406C62A847D
:101DC00097000000E780A0E5B717002083A7079AD7
:101DD0000567130707FAB3D7E70237170020130781
:101DE000079E08C34CC30328070083284700B71584
:101DF0000020B24033858702224433060501333583
:101E0000A60023A4C59EB307150123A6F59E410194
:101E10008280411106C697000000E78040E0B717B6
:101E200000209387079E88C3CCC3371700209043B8
:101E3000D4430328879E8328C79E63EAD8000545BC
:101E400063851601B24041018280E37DC8FEB24045
:101E5000014541018280411126C2B744004022C49D
:101E60004AC006C62A89138404808945228597F0D2
:101E7000FFFFE780E01A75D913850480CA85B7444F
:101E8000004097F0FFFFE780201813840480854509
:101E9000228597F0FFFFE780A01875D9138504808D
:101EA00097F0FFFFE7808016B24022449244024937
:101EB0001375F50F4101828079714AD04ECE52CC14
:101EC00056CA5AC85EC606D622D426D262C466C294
:101ED000AA8B97000000E78080D4B7070008AA8A81
:101EE0002E8A03A9872B83A9C72B371B0020A9A8FB
:101EF000268597400000E78040862A8403250B9AB8
:101F0000AE8497300000E780E07F4A86CE86973027
:101F10000000E78080CA2A8C5E85AE8C9730000076
:101F2000E780407E2A86AE866285E685973000008F
:101F3000E78080312A86AE862285A685973000000C
:101F4000E78040266357050497000000E78020CD16
:101F5000B3045541B3379500B38545411305F00FE0
:101F60003384F54097000000E78020EF9307F00FDF
:101F7000A285E31FF5F60545B2502254925402594A
:101F8000F249624AD24A424BB24B224C924C4561D2
:101F900082800145D5B7411122C42A841305800CE3
:101FA00026C206C6AE8497000000E78020E131A07B
:101FB00097000000E78020E631CD1305F00F970071
:101FC0000000E78080E99307F00FE303F5FE930735
:101FD000E00F6311F5048504A2941305F00F970038
:101FE0000000E78080E72300A4000504E39784FE57
:101FF0001305F00F97000000E78020E61305F00FAF
:1020000097000000E78060E5B24022449244054515
:1020100041018280B24022449244014541018280C4
:10202000411191653715014006C622C497F0FFFFA4
:10203000E780E0221305F00F97000000E780E0E161
:102040001305401F97000000E78040E7054419EDA5
:102050002A8491653715014097F0FFFFE780E01F64
:102060001305F00F97000000E78020DF2285B240C3
:1020700022444101828041119317850122C426C266
:1020800006C6E1872A84AE8463C70710B14763069A
:10209000F40A91653715014097F0FFFFE780E01BD8
:1020A0001305F00F97000000E78020DB9700000089
:1020B000E78040F79307F00F3DC9136504049700CC
:1020C0000000E78080D913D5840197000000E780E5
:1020D000C0D813D504011375F50F97000000E780F1
:1020E000C0D713D584001375F50F97000000E78063
:1020F000C0D613F5F40F97000000E78000D655E82E
:102100001305500997000000E78020D529441305E6
:10211000F00F97000000E78040D4131785017D146D
:102120006187AA871374F40F635307006DF0B24000
:10213000224492443E85410182801305C0049700E9
:102140000000E78080D113D5840197000000E7806C
:10215000C0D013D504011375F50F97000000E78078
:10216000C0CF13D584001375F50F97000000E780EA
:10217000C0CE13F5F40F97000000E78000CE0545B0
:1021800097000000E78060CD1305F00F9700000076
:10219000E780A0CCA5BF8145130570039700000020
:1021A000E780A0ED0547AA87E363A7F81374F40757
:1021B000F1BDA1476319F4001305700897000000F2
:1021C000E780A0C9A1B7054597000000E780E0C8F7
:1021D00035BF411122C426C206C62A8493040520B5
:1021E00003450400050497000000E78000C7E319D9
:1021F00094FE1305F00F97000000E78000C613055A
:10220000F00F97000000E78040C51305F00F97001E
:102210000000E78080C4B24022447D896D1592445D
:10222000133515004101828019C10545828039713D
:102230001305306006DE22DC26DA4AD84ED697F047
:10224000FFFFE78080DE1305406097F0FFFFE78027
:10225000C0DD1305E07097F0FFFFE78000DD371465
:102260000140130504C0A9660D46E14597F0FFFF44
:10227000E78020F4130504C091660D46914597F060
:10228000FFFFE78000F391660D46C1453715014019
:1022900097F0FFFFE780E0F191653715014097F077
:1022A000FFFFE78080FB930740103EC28D47374415
:1022B00000403ECC930700204C00130504803EC82C
:1022C000930700023ECE02C402C602CA97F0FFFF87
:1022D000E78000CF9D451305048097F0FFFFE7805E
:1022E00060D31305048097F0FFFFE78040D12945B4
:1022F000B714002097000000E780609F9384849AC1
:1023000083C70400898BADEB832704809165371563
:10231000014093F777FC93E787022320F48097F03E
:10232000FFFFE780C0F329447D141305F00F1374F9
:10233000F40F97000000E78040B27DF4814501452D
:1023400097000000E78060D385472A846301F50485
:10235000B71700209165371501402388079E97F035
:10236000FFFFE78080EF1305F00F97000000E78084
:10237000C0AE85472380F40003C50400F2506254C8
:10238000D2544259B2591375F50F21618280130559
:10239000803E97000000E78060A29305A01A2145C7
:1023A00097000000E78060CD6319850C4000930919
:1023B000810022891305F00F97000000E780E0A953
:1023C0002300A9000509E39729FF0347610085471A
:1023D000E310F7F8034771009307A00AE31AF7F632
:1023E00001A81305900A97000000E78000C901C901
:1023F00097000000E78020A2B70500407DF197001C
:102400000000E78040A129D581451305A00397006E
:102410000000E78080C60DFD1305F00F9700000057
:10242000E780A0A32300A4000504E39789FE834767
:10243000410091653715014093F70704D5CBB717D5
:10244000002031472388E79E97F0FFFFE780E0E018
:102450001305F00F97000000E78020A037470040E9
:102460008327078093F777FC2320F78083C7040036
:1024700093F7E70F2380F40001B781451305900A15
:1024800097000000E78060BF0549636CA40009491C
:102490001304900A39A0228597000000E780E0BD70
:1024A00019C597000000E780009781456DF59700FA
:1024B0000000E7804096E30D05E8930500204145C4
:1024C00097000000E78060BBE31405E8B717002021
:1024D0003715014091652388279F97F0FFFFE7801C
:1024E000C0D71305F00F97000000E7800097BDB735
:1024F000B717002011472388E79E97F0FFFFE7807A
:10250000C0D51305F00F97000000E7800095B9B71C
:1025100001E9B717002003C5879A1375F50F82806C
:102520000545828041114AC006C622C426C211490F
:1025300039E936841149A1CAB717002083C7879AA1
:102540000D49858BA9E3B717002083C7079FAE8489
:10255000A18B91E326068547B285630EF4064945B3
:1025600097000000E78060B1054905C937150140B3
:10257000916597F0FFFFE78040CE1305F00F9700BD
:102580000000E780808DB24022444A85924402498F
:10259000410182809384042025C026859305002074
:1025A00097000000E780609F7D146DF50549814527
:1025B000314597000000E78040AC91653715014038
:1025C00097F0FFFFE78060C91305F00F9700000048
:1025D000E780A0884DBF454597000000E780E0A94F
:1025E000054949F593050020268597000000E780FE
:1025F000C09A133915009DBF014955BF01114AC842
:1026000006CE22CC26CA114959E136841149C1C2ED
:10261000B71700209387879A03C707000D49058BDA
:102620003DE783C707000949918BB5E3B717002041
:1026300083C7079FAE8413F7870051C3054763051F
:10264000E40A998BC1EBB285654597000000E780ED
:10265000C0A2054905E11305401F97000000E7806F
:10266000E0850DED1305401F97000000E780008511
:1026700029E9054937150140916597F0FFFFE7808B
:10268000C0BD1305F00F97F0FFFFE780007DF2401B
:1026900062444A85D2444249056182801305C00FD5
:1026A00097F0FFFFE780607B268597000000E780BA
:1026B00080B24DD97D149384042051FC65B7260661
:1026C000B5BF1305D00F97F0FFFFE78000793339CE
:1026D00080004DB7A2851305700932C6970000002F
:1026E000E780A099324685B7B28561459700000022
:1026F000E780A0983DFD1305401F97F0FFFFE7809E
:10270000E07B25D91305E00F97F0FFFFE780E07429
:10271000268597000000E78000AC1339150099BFAB
:10272000011126CA06CE22CC4AC8914429E1B71726
:10273000002083C7879A8D44858B95EB8547328926
:102740002E846383F50CD5C9638595049147914424
:102750006386F50237150140916597F0FFFFE7802A
:10276000C0AF1305F00F97F0FFFFE780006FF24056
:10277000624426854249D244056182803714002094
:102780001304049F83470400998B639A07128544BE
:10279000D1B7371400201304049F834704008145F8
:1027A000918BE9CB1305D00897000000E780E08CFF
:1027B00079FD1305F00F97F0FFFFE780006AC14530
:1027C0000A8597F0FFFFE780407D71D11304000375
:1027D0007D141305F00F1374F40F97F0FFFFE780DB
:1027E000C0677DF48347A100814413D74700C147E8
:1027F000B397E7002320F900B1BF97000000E780FE
:10280000608293341500B9B78145254597000000D3
:10281000E780A0862DFDC1450A8597F0FFFFE78080
:10282000C07735D5834701009983638A8710834732
:102830008100034571000346610003475100834551
:10284000A100834691000A059983AA9705652A0687
:102850003D8B9D818606130505C0698E2E97998A4A
:10286000B297369785076517B397E7002320F900DD
:102870008144CDB5254597000000E780008001F92F
:10288000C1450A8597F0FFFFE780207109D1034712
:1028900004008347A1008346B100098B61C7034749
:1028A000D100860793F7E7079D82B69719838507BE
:1028B0007D17B397E7002320F900814461BD0A86A4
:1028C000AD4597000000E780E0E5E31205EC8347A3
:1028D00001000347A100998313770704D98FE38888
:1028E00007EA834704008325090003244900A18BDC
:1028F00099E3A60526041305000297F0FFFFE78081
:10290000C077E31605E8A2851305100297F0FFFFD4
:10291000E780A076E31D05E681451305600297F088
:10292000FFFFE7808075E31405E61D651305055379
:1029300097F0FFFFE78080589334150021BD0347CF
:1029400071008347810083469100420737063F00AC
:10295000A207718FB6970507BA97AA072320F90037
:102960008144CDBB13973600618B9582898736975A
:10297000FD8B05078507B307F70281442320F90083
:10298000D1BB371800201308C89A2310A8002301D0
:10299000B800A301C8002302D800A302E800230363
:1029A000F8008280371700201307C79A8347270053
:1029B00083453700034867000346470083465700B6
:1029C00003450700C205D607CD8F1317B600B3E73E
:1029D0000701D98F1305450413975600D98F660553
:1029E0005D8D82800C418DC5AE8793060002130673
:1029F000A00319A0630AC700850703C7F7FFE3EB2D
:102A0000E6FE01473A858280138725006385E7004B
:102A10007D573A85828003C60500930600037D57E3
:102A2000E312D6FE1CC10147F1BF39C11C4101119F
:102A300022CC06CE2A8491CB03C7070019C7835640
:102A4000450003D767006389E60025458147F240CA
:102A500062449CC10561828003C517002EC69700A1
:102A60000000E78020AB0589B24565F11C40C5B781
:102A7000814725459CC182802E96850583C7F5FF39
:102A80000505A30FF5FEE39AC5FE8280411122C41D
:102A900026C24AC006C62A845055034515001309AC
:102AA00004038546CA8597000000E78060B5854429
:102AB00005E150541C50184CA3010400B307F64024
:102AC000AA8463F7E7008346240089476389F600F8
:102AD000B240224426850249924441018280034546
:102AE000140085463A96CA8597000000E78040B1F9
:102AF000C5B7411122C426C206C6834735002A84C1
:102B0000AE848DE7034514008546268693050403AD
:102B100097000000E78040A119E544D4B240224468
:102B20009244410182800545FD54C5BF97000000D5
:102B3000E78000F661D9B24022449244410182808C
:102B4000411122C406C6FD57A30105005CD52A84A5
:102B50006388F50097000000E780E0F9914705EDF4
:102B60000347F4228347E422ED7622075D8F420774
:102B70004187938656A58D47631FD700834704037B
:102B80001307B00E638EE700E10713F7F70F8546D2
:102B9000894763F7E600B24022443E8541018280C6
:102BA0000347640693076004631FF7000347740636
:102BB000930710046319F700834684061307400542
:102BC0008147E38AE6FC034524083707000893079A
:102BD00034081305A5FB130474081307172C850785
:102BE000050705E103C5F7FF8346F7FF158DE39859
:102BF00087FEB2402244B337A00086073E854101DC
:102C00008280B240224489473E85410182807971A9
:102C10004AD04ECE06D622D426D252CC23A00500CE
:102C2000AE89328997000000E78000DC6340052808
:102C300037170020931725001307479FBA97804343
:102C4000AA846307042623A089008347040013791C
:102C5000E90F85CB0345140097000000E780808BC7
:102C60009377150099EF630509001189631E05220A
:102C7000B250225492540259F249624A3E8545614B
:102C8000828013F5F40F23000400A300A40097F042
:102C9000FFFFE780A059137715008D4771FB63058F
:102CA00009001189631205208145228597000000E3
:102CB000E78040E989476303F5189147630CF51EE7
:102CC0008547014963E0A71E8347C4038346B403D5
:102CD00013070020A207D58FC207C1876394E71CA2
:102CE0008347740403476404A207D98F99EF03470D
:102CF0007405834764058346540522075D8F2207C8
:102D000083474405558F2207D98F034704041CCC01
:102D100005469306F7FF2301E40093F6F60F63637D
:102D2000D6180345D40393160501C1822315D40098
:102D3000638A06169306F5FFE98E63950616034629
:102D40002404834614042206558E420641869318B5
:102D5000060193D808012314140193F6F800639335
:102D600006148346440483453404A206CD8E85E2CE
:102D7000834534058346240503481405A205D58DF3
:102D8000A20583460405B365B800A205CD8E834530
:102D9000F4030348E403A205B3E5050163840510C9
:102DA0003307F70213D848002E983A9863EC060FC1
:102DB000B386064133D3A60263E6A60EB70600101B
:102DC000D51663E1660EC166D51613052300CA95B4
:102DD0004A9863E3660E8566D51648C8232E2401FB
:102DE0000CD02324040363E86620638D080A93163D
:102DF0001500AA962E978582058958D005463387F7
:102E0000A6001307F71F258363EEE708FD571CC8CC
:102E10005CC4930700F82302F400B71600209386E1
:102E2000869F03D706002300C40081470507420799
:102E300041832390E6002313E4001DBD8A84930799
:102E4000E41E1305E422268683C64700014799CE77
:102E500003C7B70083C6A70083C597002207558F15
:102E6000220783C687004D8F2207558F18C2C107DE
:102E70001106E39BA7FC93890401054A03A90400FA
:102E80000D459104630A0900CA8522859700000058
:102E9000E78040CBE37AAAE2E39299FE11478547A7
:102EA000E308E5DCB547E9B3A947D9B3AD47C9B3F2
:102EB000B1477DBB85476DBB0347B4058346A40579
:102EC00048C82207558F518F4207232E24010CD06A
:102ED00023240403418779F70347F4050346E405F7
:102EE0008346D4052207518F22070346C405558F18
:102EF0009316870013172500D18E1307F71F54D0A0
:102F00002583E3E1E7FA83471406834604067D57E9
:102F1000A207D58F18C858C4C207130700F82302A8
:102F2000E400C18705476384E7000D46FDB55C54A6
:102F3000930519006388F500228597000000E7805B
:102F400080BB65F58347F4220347E4222302040093
:102F5000A207D98FC2076D77C187130757A5E396DC
:102F6000E7FC834734038346240303471403A20783
:102F7000D58FA20783460403D98FA20733E7F60053
:102F8000B757614193872725E311F7FA83477421E7
:102F90008346642103475421A207D58FA2078346A5
:102FA0004421D98FA20733E7F600B77741619387B1
:102FB0002727E31CF7F60347B4218347F421034591
:102FC000A4218345E421034694212207A2078346D6
:102FD000D421498FCD8F220703458421A207834541
:102FE000C421518FD58F2207A207498FCD8F18C8D2
:102FF0005CC40D461DB5E38708EA2E9758D00946F4
:1030000013171500FDBB011122CC26CA4AC806CEF3
:103010004EC652C456C28347050009472A84AE846F
:1030200032896383E7020D476383E70E85460947CC
:10303000638CD704F2406244D2444249B249224AE6
:10304000924A3A850561828018515C55A181BA95F2
:103050006388F50097000000E780E0A92A8779F9E6
:1030600086041317090193070403418393F4E41FB3
:10307000BE9493578700A380F400238024018547E2
:10308000A301F40001477DB793D915001851AE99FB
:103090005C5593D59900BA956388F50097000000B8
:1030A000E78060A52A8759F5138A1900930A04035B
:1030B00093F9F91F8588D69993559A00E9C003C7FB
:1030C00009008566C116931749003D8BF58FD98F8E
:1030D0002380F90018505C548546A301D400BA95AA
:1030E0006389F500228597000000E780C0A02A8749
:1030F00031F1137AFA1F13594900569A1379F90FCF
:1031000023002A018547A301F400014725B7185180
:103110005C559D81BA956388F50097000000E780B3
:10312000809D2A8701F98A049307040393F4C41F3E
:10313000BE9403C7340083C6240083C7140022074B
:10314000558F2207D98F1209370700F0A207F98F90
:103150001359490033E9270113570901935789018E
:10316000935689002381E400A381F4002380240185
:10317000A380D4008547A301F400014765BD2380E7
:10318000290118505C548546A301D400BA95638A7E
:10319000F500228597000000E780E0952A87E31B71
:1031A00005E8137AFA1F569A83470A0013598900D3
:1031B0001379F900C19B33E9270199B7054763717A
:1031C000B7045049011126CA06CE22CC4AC84EC6C1
:1031D000AA84854763FEC5008346050089472E847F
:1031E000638AF60C8D476384F608BA87638DE60020
:1031F000F2406244D2444249B2493E850561828030
:1032000085473E85828013D9150018512E995C554B
:1032100093559900BA956389F50097000000E780FF
:10322000808D71E19850DC549309190093D5990071
:103230001379F91F2699BA95034909036388F500A4
:10324000268597000000E780008B51ED93F6F91F6B
:10325000A69603C706039375140022073367270158
:1032600093574700D1F593174701D18351B71851B0
:103270005C559D81BA956387F50097000000E78053
:10328000808735E1931524009386040393F5C51FC9
:10329000AE9603C7360083C7260003C61600220772
:1032A0005D8F220783C70600518F2207D98F9207AF
:1032B00091833DBF18515C55A181BA956387F50094
:1032C00097000000E780208319ED93151400938682
:1032D000040393F5E51FAE9683C7160003C70600E7
:1032E000A207D98F31B7FD5721B701114AC852C47F
:1032F0005AC006CE22CC26CA4EC656C22A8A2E8B69
:1033000003290500E1E98324C900E1E0854483271E
:103310000901C5C38327490126848549FD5A09A8A7
:10332000630D3511630D5511630594088327490119
:1033300005046365F40063FE9906094403250A0049
:10334000A28597000000E780A0E779F9854763F63A
:10335000870E832749016372F40E7D56A2854A8544
:1033600097000000E78060CA71E563010B028547A2
:1033700063F5670D832749016371FB0C2286DA85AB
:103380004A8597000000E78040C84DE58327490142
:103390000327090123268900F91763E5E7007D1754
:1033A0002328E9008347490093E717002302F90027
:1033B00011A001442285F2406244D2444249B249FC
:1033C000224A924A024B0561828083274901E3E049
:1033D000F4F42DBF4A8597000000E78060DE854742
:1033E0002A8463FCA704FD57630BF5048327490176
:1033F000E362F5FC032709014DDF13041B0063633F
:10340000F400094403250A00A28597000000E78024
:1034100020DB05476303E502FD576302F50215C192
:103420008324C9008327490163749700E3E6F4EE1F
:10343000DA84DDB585476304F5000544A5BF7D54F6
:1034400095BF01F883274901DA84F9B5797126D24D
:10345000044922D406D64AD04ECE52CC56CA5AC8B7
:103460005EC662C466C2B7072000938404022A8441
:1034700063E2F402232C04001145B250225492540A
:103480000259F249624AD24A424BB24B224C924C08
:10349000456182801C4D638C071293F9F41F032A47
:1034A0000500638A090013090A034E9904C8232EF4
:1034B00024010145D9B72E894C4985071CCDA9CDDA
:1034C0008357AA0093DA9400FD17B3FA5701E39CDF
:1034D0000AFC528597000000E78080CE85472A8B42
:1034E00063F5A70EFD576306F50483274A0163744D
:1034F000F504130CE5FF13090A03232A6401F917E5
:103500006379FC00835AAA0083278A02B38A8A035C
:10351000BE9A232C540151BF83578A0013D75400FD
:10352000E363F7F881BF528597F0FFFFE7804056CD
:1035300005C9054599B7E30F09F24C482285970064
:103540000000E780C0DA2A8B1D45E3080BF28547AF
:10355000630DFB06FD57E30EFBFC83473A00E1F7E2
:1035600083274A01130CEBFF814CF9176379FC00A8
:10357000835CAA0083278A02B38C8C03BE9C130948
:103580000A0323269A0313070A23CA878507A38FF2
:1035900007FEE39DE7FE8357AA00814B89E71DA044
:1035A000850B63FFFB0003451A0033867C018546CB
:1035B000CA8597F0FFFFE780A0048357AA006DD16A
:1035C000E399FBF683274A010DBF09457DB51145F7
:1035D0006DB501110C4526CA06CE22CC4AC84EC68E
:1035E0002328050004419DE903C70400894763E4DB
:1035F000E70283D78400A9CFDC501CCD4CC9A9CBEE
:103600009384040344CD0145F2406244D2444249CC
:10361000B24905618280DC50E9DFBE8583D7A40012
:10362000A1E32A847D592685854939A063F2A90240
:10363000DC48637FF500084097000000E78040B851
:10364000AA85E31525FF0545C1B7232C05004CC904
:10365000F2406244D2444249B24909450561828040
:10366000D8489386E5FF7917E3F1E6FEB387D702E2
:103670009854BA971CCD59B779712AC6680822D4D4
:1036800006D62EC432842ECE97F0FFFFE780C035D9
:1036900063440504B71700209387479F0A053387C3
:1036A000A700184319C323000700324719C323009A
:1036B0000700AA9798C3014509E4B2502254456116
:1036C00082806C002800014697F0FFFFE78060547D
:1036D000B250225445618280B25022542D4545613A
:1036E0008280197186DEA2DCA6DACAD8CED6D2D400
:1036F000D6D2DAD0DECEE2CCE6CAEAC8EEC62EC614
:10370000630B051A137CF60332892A8462860C083F
:10371000680097F0FFFFE780C04FAA841DC12320F7
:103720000400F650665426854659D654B659265A92
:10373000965A065BF64B664CD64C464DB64D096123
:103740008280C249B24C1306F0024ECA1307C0056C
:1037500083C70C006384C7006394E700850CCDBF6A
:1037600002CE03C70C00FD47930AF10363FEE70690
:10377000130A0002930BF002130BC0055C188507B7
:10378000A38F47FFE39D57FF0146814521459308DD
:10379000E0022D43130ED007930FF0039302E007CE
:1037A000930E2002654FB387BC0083C707001387C1
:1037B00015006373FA206382771163806711638653
:1037C000170B6371A6021388F7071378F80F636469
:1037D0000E0B66970348070063F60F011377F8078F
:1037E00063F4E204994425BF130D4101930700F8E7
:1037F0006A85A30FF10297000000E780C0DD631423
:10380000054E8347F103E207E1871377C901E3CB54
:1038100007FC8347A1010DCFC58BB1E79377490022
:1038200063830728A144E5BD1307F5FFE37CE6FAAF
:10383000940013071600B383C600238AF3FEB387F0
:10384000E600138725000906238A07FFBA85A1BF72
:1038500013F7070163160716137929006304091685
:10386000858B638107169D445DBDE30D65F621469A
:103870002D45BA850DBFE387D7F7B70600081308B3
:10388000A0029385962C8505E38E07F503C80500F5
:10389000E31B08FE9385F7F993F5F50F6365BF0009
:1038A000811793F7F70F9400B385C600238AF5FEBE
:1038B0000506BA85CDBDA544ADB56697834507001D
:1038C000BA8C0507E38C75FFE38A65FF01DE0346CA
:1038D00041031307500E6315E6001547230AE10262
:1038E000B337FA0093C71700130D41018A076A85A1
:1038F000A30FF102D24D97000000E780C0CD11C99F
:1039000071AA81456A8597000000E78060B463175B
:103910000518B25583A7CD026389F5006E8597F02F
:10392000FFFFE780401D631B0516C25703C7070052
:103930006309073403C6B7001377F603230DE100CC
:10394000137786005DFF03C7070003454103850722
:1039500093055103098F8507850545F703C7F7FFD1
:1039600003C5F5FF098FE39855FF41FF8347F10336
:1039700013F74700E31907E8418A29C212579387D2
:10398000090383C509001377F71FBA9703C7B70167
:1039900003C5A7010D462207498F6384C5003ACEAF
:1039A000F1BB03C6570183C5470193178600CD8F2E
:1039B000C2075D8F3ACED9B3BA9C09BF954485B38F
:1039C0009144B1BBC245D85593778C0099C3136C11
:1039D0000C04C25718D08D465CD003C7B70103C58D
:1039E000A70103C605002207498F631AD60083C6C4
:1039F000570103C64701A206D18EC206558F18C4CF
:103A000003C7F70103C6E70183C6D7012207518F19
:103A100003C6C70193178700D58F03D76500A20798
:103A2000D18F930984025CC42312E4000CC02308E4
:103A30008401A3080400232E0400232A0400130792
:103A40008422CE878507A38F07FEE39DE7FE137CC4
:103A50000C02E3080CCC0329C400E30409CC03DA0C
:103A6000A500232A24010C44260A63772A1D854ACF
:103A70007D5B39A033094941630F6501637E2A1BD1
:103A8000084097F0FFFFE780A073AA85E3E4AAFE51
:103A900089440CCC69B185440CCC51B19147630287
:103AA000F51EAA84ADB9C24513798900AE87631C9F
:103AB0000906D85539BF9309500EB2570327C902DA
:103AC0004A85BE856388E70097F0FFFFE780A00284
:103AD000631A051CC25703C70700630637018545F3
:103AE0006A856316071CB2550327C9026389E5007E
:103AF0004A8597F0FFFFE780000045F5C25713871E
:103B000007028507A38F07FEE39DE7FE42552D467A
:103B10004C1897F0FFFFE78060F68547A301F90096
:103B2000C247136C8C00C25903C707008D4703C9F5
:103B3000B90183C6A90122093369D900631BF700C3
:103B400083C7590103C74901A207D98FC207336947
:103B5000F90097F0FFFFE78020E5935685001357A3
:103B60000501935785012388E9002387A900A387CE
:103B7000D900A388F900C25713070002C245A385E4
:103B8000E700C2570D47238D0700A38D070083C6AA
:103B900005006396E600238A0700A38A0700C25740
:103BA0000547238E0700A38E0700238F0700A38FEE
:103BB0000700A381E500E30809E0524A6301E90A2E
:103BC00083274A01637DF90883A9C50252854A8B80
:103BD000854BFD5CDA8597F0FFFFE780605EAA8A7F
:103BE000DA8501465285638B0A0C638A7A076388FB
:103BF0009A0963F66B0783274A016372FB0697F005
:103C0000FFFFE7808040E31E05E883274A01032782
:103C10000A01568B9386E7FF13061700637AD700D5
:103C200003474A002328CA00136717002302EA004B
:103C300063F6FA08524579BF0CCC9377F91FE382FB
:103C400007AE4247F9155C4BF91763FAF500835745
:103C5000A7001057B385B702B387C50099E389441D
:103C60007DBC135699003E9650CC034517008546FF
:103C7000CE8597F0FFFFE780208BE30405AA8544FB
:103C800079BC8347F1031379C901918BE38807D28B
:103C9000E30809D26A85524997000000E780A093A3
:103CA000E30B05E09147E31EF5DE9D448DBC97F0E4
:103CB000FFFFE780E079E30205E0EDB7C2457D193B
:103CC000D855638FE9002E85CE8597F0FFFFE780FA
:103CD00080E2C24523A62501E30705CEAA8481B46C
:103CE00023A62501D5B11379C901E30C09DA91475F
:103CF000E302F5FAAA8425B45D71A2C4CAC04EDEFF
:103D000052DC6AD086C6A6C256DA5AD85ED662D4CB
:103D100066D26ECE2E8A23A006006C00B6892A8455
:103D2000328997F0FFFFE78080D02A8D79ED034D2F
:103D30001401631C0D0C034704019377270063856E
:103D400007185C48B386270163E6F614630B090A7B
:103D5000130B0020930BF01F930A84027D5C13F574
:103D6000F71F79EDB24693DD970003D7A6007D17C4
:103D7000B37DB70163900D02A5EF084463080514F5
:103D800085476304F510630C85131C4408CCB246C8
:103D900091E308C48307040163C107101C4CD84A8F
:103DA000F917791763F3E70E03D7A6008C56B3878C
:103DB000E702AE97F9CBB38CFD0063F82B07935461
:103DC0009900B3879D006374F700B304B74103C53E
:103DD00016006686A686D28597F0FFFFE7804082B0
:103DE00079ED5C4CB387974163EB970EA6049DA8D1
:103DF0000C4C228597F0FFFFE780604F51F103479D
:103E00000401136707042308E400B64026446A85CA
:103E100096440649F259625AD25A425BB25B225C1E
:103E2000925C025DF24D616182805C4C4848638522
:103E300097015C446367F50C232E94011375F51FFD
:103E4000B304AB4063739900CA842686D285569525
:103E500097F0FFFFE78080C28347040193E707F8EC
:103E60002308F40003A709005C485444269723A0C4
:103E7000E900A6975CC833099940269A63F3F600D7
:103E8000BE8654C4E31D09EC9DBF8947A308F40016
:103E9000094DA5BF13C9F7FF55BD03C51600504C0A
:103EA0008546D68597E0FFFFE780807509E983475F
:103EB0000401B24693F7F7072308F400C5B5854718
:103EC000A308F400054D91B71D4D81B781452285AA
:103ED00097F0FFFFE780A041E31405EA0DB7A607BE
:103EE000B305FA0013060020568597F0FFFFE78020
:103EF000E0B883470401A60493F7F7072308F4000A
:103F000095B703C5160066868546D68597E0FFFF00
:103F1000E78080614DF5484805B701116C0022CC5F
:103F200006CE26CA4AC82A8497F0FFFFE78020B051
:103F3000AA876DE90347040193760704E5C6620783
:103F400061876348070E97F0FFFFE780E0A5B24462
:103F50000C502A89DC54638AF500268597F0FFFF10
:103F6000E78060B9AA875DEDB2445C500D4603C797
:103F7000B70013670702A385E70018440C409316A7
:103F80000701C182A182238DE700A38DD70083C6DC
:103F900005006399C600418393568700238AE70092
:103FA000A38AD70058449355890013560901135525
:103FB0008701935689019358870013580701A38FEF
:103FC000A700238B2701238EE700A38E1701238FE1
:103FD0000701A38BB700238CC700A38CD7002389CC
:103FE0000700A38907000549A3812401268597F0CE
:103FF000FFFFE780E0A9AA8705E103C704008D471A
:10400000630DF70403C514000146814597E0FFFFE7
:10401000E7804071B337A000034704011377F7FB33
:104020002308E400F2406244D24442493E850561DF
:104030008280B247504C854603C517009305840221
:1040400097E0FFFFE780C05B854769FD8347040178
:1040500093F7F7072308F400FDB583C74400E39303
:1040600027FB9385040313870423AE878507A38F5B
:1040700007FEE39DE7FE9848DC44D04C1309500549
:1040800003C514001303200593061006130810043B
:104090009308200705069353870093520701935F07
:1040A000870113DF870093DE070113DE8701238773
:1040B00024231309A0FA2389D402A38BD420A38735
:1040C000242323886402A3886402A3890403238A27
:1040D0001421A38A1421238B0421238CE420A38C94
:1040E0007420238D5420A38DF421238EF420A38EDD
:1040F000E421238FD421A38FC421D0D4854697E017
:10410000FFFFE780E04F23820400EDBD011122CCC8
:1041100006CE2A8497000000E78060E009C5F240DF
:104120006244056182806C00228597F0FFFFE78082
:10413000009075F523200400F240624405618280FE
:10414000011122CC37140020130404A3AA874CC009
:10415000368510C41CC054C4380006CE26CA854615
:104160001306500793058006829703478100D947BD
:104170007D556312F71048445C40130800F878003E
:1041800085461306B0069305800623060101829733
:104190001C441305400682978307810063DF0700F4
:1041A0001C404844380085461306B0069305800637
:1041B000829783078100E3C507FE1C441305400670
:1041C0008944829748445C402548230601017800D1
:1041D00085461306B00693058006829748445C40E6
:1041E0007800854665469305800623060100829780
:1041F00048445C407800854669469305800623065E
:104200009100829748445C40614823060101780090
:1042100085466D4693058006829748445C40780049
:10422000854671469305800623060100829748441F
:104230005C4078008546754693058006230691000C
:10424000829748445C401308200378008546130693
:1042500070039305800623060101829748445C4061
:1042600005472306E1008546780013068003930581
:10427000800682970545F2406244D24405618280FF
:10428000B71700200111938707A322CC03A80700CA
:104290002A84C84706CE99461306B00393058006C4
:1042A000380002988317810013D78700A303F10019
:1042B0002303E1000315610097200000E780C0821E
:1042C0008317A10008C013D78700A303F1002303BD
:1042D000E1000315610097200000E780E08083176C
:1042E000C10048C013D78700A303F1002303E100F6
:1042F0000315610097100000E780007F08C4F240BA
:10430000624405450561828079714AD04ECE5EC611
:1043100006D622D426D252CC56CA5AC862C466C225
:10432000AA8B97E0FFFFE780808F2A89AE8997E00C
:10433000FFFFE780C08E2A84AE846314A900E3885F
:10434000B9FEB707000803A9872B83A9C72B371B22
:10435000002097E0FFFFE780808CAA87018DB3B72C
:10436000A700858D9D8D97100000E780003F2A8A69
:1043700003250B9AAE8A97100000E780A0384A8682
:10438000CE8697100000E78040832A8C5E85AE8C35
:1043900097100000E78000302A86AE866285E685A9
:1043A00097100000E78040EA2A86AE865285D685BF
:1043B00097100000E78000DFE34D05F8B25022546B
:1043C00092540259F249624AD24A424BB24B224CB1
:1043D000924C45618280011122CC004126CA4AC814
:1043E00022854EC652C406CEAE84B28936893A8A38
:1043F00097D0FFFFE780C05693050050228597D0E5
:10440000FFFFE780E0576DD986047956A68522859F
:1044100097D0FFFFE780005393051050228597D077
:10442000FFFFE780E0556DD993051050228597D0A6
:10443000FFFFE780205693057050228597D0FFFF3D
:10444000E78000546DD9CE85228597D0FFFFE780A5
:10445000605293057050228597D0FFFFE78040524D
:104460006DD9228597D0FFFFE780804F93050050DC
:10447000228597D0FFFFE780A0506DD90546A6851D
:10448000228597D0FFFFE780E04B930510502285EF
:1044900097D0FFFFE780C04E6DD99305105022855D
:1044A00097D0FFFFE780004F8545228597D0FFFF1B
:1044B000E780A0479309F9FF8144630809026387F5
:1044C000990493056050228597D0FFFFE780404B09
:1044D0006DD9228597D0FFFFE780004AB3079A0085
:1044E0002380A7008504E39C24FD228597D0FFFF4D
:1044F000E780A0471C4093F70720EDFFF24062449D
:10450000D2444249B249224A0561828081452285CE
:1045100097D0FFFFE78060416DB7011122CC0041C9
:1045200026CA4AC84EC652C406CE2E8A3289B689D9
:10453000BA8493051060228597D0FFFFE78040443E
:104540006DF9228597D0FFFFE780804193050050E9
:10455000228597D0FFFFE780A0426DD97956931549
:104560001A00228597D0FFFFE780C03D93051050C9
:10457000228597D0FFFFE780A0406DD993051050AA
:10458000228597D0FFFFE780E04093057050228599
:1045900097D0FFFFE780C03E6DD9CA85228597D0AE
:1045A000FFFFE780203D93057050228597D0FFFFE5
:1045B000E780003D6DD933893401638409028504A5
:1045C00083C5F4FF228597D0FFFFE780A03A9305CB
:1045D0007050228597D0FFFFE780803A6DD9E310B5
:1045E00099FE228597D0FFFFE78020381C4093F783
:1045F0000720EDFFF2406244D2444249B249224AC8
:10460000056182804111E16522C401469385056AF6
:104610003714002006C626C22320A4A4AA8497D05B
:10462000FFFFE780C019268597D0FFFFE780A03203
:10463000930604A42244B240924437460008B7458A
:10464000000837450008130686309385A5511305E9
:10465000653D4101170300006700C3AE397122DCDC
:104660002A84130520604ED606DE26DA4AD897D073
:10467000FFFFE780809B937914001305006097D0BB
:10468000FFFFE780809A6390092413792400631068
:104690000922937444006390042021886311041E4E
:1046A0001305007097D0FFFFE78020983705004082
:1046B00097D0FFFFE78080BB080897D0FFFFE78017
:1046C000C0CBA9473EC891679387F7E70C08370529
:1046D00000403ECC231A0100231E0100230F0100DD
:1046E00097D0FFFFE780E0CA480097D0FFFFE78040
:1046F00080D7B707040085073EC202C402C663958F
:10470000091663180914639B0412631E0410639E48
:10471000090C631F09088DE425E03705004097D098
:10472000FFFFE780A0D33705004097D0FFFFE78069
:1047300040D2F2506254D2544259B259216182801F
:104740000D661306F6ED89453705004097D0FFFF4B
:10475000E780A0FE1306000689453705004097D084
:10476000FFFFE780A0F7014689453705004097D055
:10477000FFFFE780E0FE55D00D661306F6ED8D4590
:104780003705004097D0FFFFE78020FB13060006A7
:104790008D453705004097D0FFFFE78020F40146A4
:1047A0008D453705004097D0FFFFE78060FBB5B728
:1047B0000D661306F6ED85453705004097D0FFFFDF
:1047C000E780A0F71306000685453705004097D01F
:1047D000FFFFE780A0F0014685453705004097D0F0
:1047E000FFFFE780E0F78DD8A1BF0D661306F6ED59
:1047F00081453705004097D0FFFFE78000F413069E
:10480000000681453705004097D0FFFFE78000EDA7
:10481000014681453705004097D0FFFFE78040F40F
:10482000E30B09EE71B750008D453705004097D076
:10483000FFFFE780E0C4E38E09EC45BF50008945E7
:104840003705004097D0FFFFE78080C3E30104EC09
:10485000D9BF500085453705004097D0FFFFE7805E
:1048600020C2E38404EAD9BF5000814537050040E7
:1048700097D0FFFFE780C0C0E30709E8D9BF37152D
:104880000140A1460D46E1451305058097D0FFFF85
:10489000E780209231B53715014091460D46E1453C
:1048A0001305058097D0FFFFE780A090FDB3371573
:1048B000014089460D46E1451305058097D0FFFF6D
:1048C000E780208FF9B33715014085460D46E14555
:1048D0001305058097D0FFFFE780A08D7DB30966A3
:1048E000130606F43306C50241118545370500401D
:1048F00006C697D0FFFFE78040E4B24001468145FD
:1049000037050040410117D3FFFF670003E3411162
:104910000D4506C622C497000000E78060D4130549
:10492000306097C0FFFFE78040701305507197C05B
:10493000FFFFE780806F371401409306000C0D469F
:10494000F145130504C097D0FFFFE78080863755F7
:1049500000401305054097000000E780E0CA1305FA
:10496000206097C0FFFFE780406C930600040D466F
:1049700091451305048097D0FFFFE78080830545AC
:1049800097000000E780E0F51305803E97D0FFFF19
:10499000E780E035014597000000E78080F422447D
:1049A000B2401305803E410117D3FFFF6700233457
:1049B000130101B10147B14681472324814E1946B5
:1049C000B1452A841305607E2326114E02C297E06A
:1049D000FFFFE78040FB1305400697D0FFFFE7800D
:1049E0000031B705000822869385852D2800230411
:1049F000010097100000E7806040B70500080546F9
:104A00009385852A081D97F0FFFFE78020C72801BE
:104A100097F0FFFFE780A050B7050008294693856F
:104A2000C52D280197F0FFFFE780E0CBAA8728007B
:104A30003EC097100000E780A0412A8654002C0059
:104A4000280197F0FFFFE780602BAA871305001964
:104A50003EC097D0FFFFE7808029280197F0FFFF35
:104A6000E780E04B280197F0FFFFE780606A1305BD
:104A7000400697D0FFFFE78080278320C14E0324A4
:104A8000814E1301014F82800000000000000000F1
:104A90000000000000000000000000000000000016
:104AA0000000000000000000000000000000000006
:104AB00000000000000000000000000000000000F6
:104AC0005D7106C012C216C41AC61EC82ACA2ECCF0
:104AD00032CE36D03AD23ED442D646D872DA76DCDE
:104AE0007ADEFEC0F322103496C0F322003096C264
:104AF000F322407C96C4732520348A8597D0FFFF2B
:104B0000E7806018864273901234964273900230A8
:104B1000A6427390427C82401242A2423243C24378
:104B20005245E245724682561257A2573258C25831
:104B3000525EE25E725F864F61617300203000005A
:104B4000000000005D7106C012C216C41AC61EC85D
:104B50002ACA2ECC32CE36D03AD23ED442D646D80D
:104B600072DA76DC7ADEFEC073D0E87E7350F97EAE
:104B700073D0B97EF390D07E73700430B6427390D8
:104B8000427CA64273901234964273902234824043
:104B90001242A2423243C2435245E2457246825615
:104BA0001257A2573258C258525EE25E725F864F69
:104BB000616173002030797113D8450126D24ECE41
:104BC00052CC5AC85EC69394C50006D622D44AD0A9
:104BD00056CA1378F87F2A8BB28B368AB18093D964
:104BE000F501630408089307F07F630EF80C935AED
:104BF000D5018E04B3E49A00B70A8000B3EA5401E9
:104C000013143500130918C0014B13554A019314AE
:104C1000CA001378F57FB180135AFA016308080CB3
:104C20009307F07F6301F8121395340093D7DB01EB
:104C30005D8DB7048000C98C139F3B00130518C01D
:104C4000814713172B005D8F7D17B94633C6490185
:104C50003308A94063EBE61097B6FFFF9386866B97
:104C60000A073697184336970287B3EAA40063868B
:104C70000A068DCC268597100000E7800002930776
:104C800055FF7147634BF702F54A130485FFB38A5A
:104C9000FA40B3948400B35A5B01B3EA9A00331428
:104CA0008B001308D0C03309A840B9BF971000008B
:104CB000E780A0FE13050502D9B7930485FDB31A5A
:104CC0009B000144F9BFB3EAA400638C0A002A8464
:104CD000A68A1309F07F0D4B0DBF01440149054B16
:104CE0002DB701441309F07F094B05B733EF740169
:104CF00063040F069DC8268597100000E780E0F941
:104D0000930755FF7147634AF7027547130F85FFF5
:104D10001D8FB394E40133D7EB00D98C339FEB01A3
:104D20001306D0C03305A64021BF5E859710000052
:104D3000E780A0F613050502E1B7930485FDB3945F
:104D40009B00014FF1BF33EF7401630B0F005E8FC7
:104D50001305F07F8D47F5B5814401458547D5B5ED
:104D600081441305F07F8947E9BD63E654016393ED
:104D70009A2A6361E42B9396FA0113571400931750
:104D8000F40193DA1A0033E4E60013958400935497
:104D90008F01458D135E0501B3D8CA0313130501B6
:104DA000135303011357040193158F00B3F4CA037F
:104DB000C68FB3061303939A040133675701637CCC
:104DC000D7002A97938FF8FF6367A7006375D70012
:104DD000938FE8FF2A97158FB35EC7034204418083
:104DE0003377C703F686B308D3034207418F637C4A
:104DF00017012A979386FEFF6367A7006375170163
:104E00009386EEFF2A97C20FB3EFDF00C16633042B
:104E100017419388F6FF13DF0F0133F71F0193DE6D
:104E20000501B3F81501B3031703B3041F03338758
:104E3000EE02B302DF03330F970013D703017A9713
:104E400063739700B692135F0701169FC162FD124C
:104E5000B3765700C206B3F353009E966367E4012E
:104E6000FE84631EE40363FCD702AE9733B7B7003A
:104E70002A973A949384FFFF636685006311850245
:104E800063EFB7006366E401631B8F0063F9D7002B
:104E9000AE9733B7B7002A979384EFFF3A94B3865F
:104EA000D7403304E441B3B7D7001D8C7D5F630561
:104EB000850E335FC40313D706013374C403B307ED
:104EC000E3034204598C7A87637CF4002A94130725
:104ED000FFFF6367A4006375F4001307EFFF2A94D4
:104EE0001D8C335FC403C206C1823374C403FA87C6
:104EF0003303E3034204558C637C64002A949307D4
:104F0000FFFF6367A400637564009307EFFF2A94B3
:104F100042075D8F93170701C18333046440135325
:104F20000701338E1703B308130333836E02B38E66
:104F3000FE0293570E01C69EF69763F41701C166F1
:104F4000369393D807019A9841637D13B3F66700AF
:104F5000C206337E6E00F29663661401631E141956
:104F60003A8F9DCA2A94130FF7FF6361A402636608
:104F700014016312141963FDD50093971500B3B59E
:104F8000B7002E95130FE7FF2A94BE856314140112
:104F90006384B600136F1F001307F83F6357E00ADE
:104FA00093777F0081CF9377FF0091466388D70086
:104FB00093064F0033BFE601FA94368F939774003F
:104FC00063D80700B70700FFFD17FD8C13070840E3
:104FD0009307E07F63C8E710135F3F009397D40106
:104FE000B3E7E70113D5340032051377F77F520793
:104FF000B25022543181598D7E063367C5009254D8
:105000000259F249624AD24A424BB24B3E85BA85B6
:10501000456182807D1881478DBB4E86D684228F64
:10502000DA8709476380E70C0D476386E70A05477F
:10503000E394E7F60145814785A85286DDB7B704BA
:105040000800014F01468D47E9BF0545198D9307BB
:105050008003E3C1A7FEFD4763CAA7041308E84124
:10506000B39704013357AF0033180F01D98F33388A
:105070000001B3E7070133D5A40013F7770001CF90
:1050800013F7F70091466308D70013874700B3373B
:10509000F7003E95BA8713178500634A0704131774
:1050A000D5018D83D98F0D8101473DBF8557998FDC
:1050B00093060002B3D7F40001476306D500130836
:1050C000E84333970401336FE701333FE001B3E76F
:1050D000E70101455DB73705080081471307F07FF9
:1050E000014619B7014581471307F07FF5BD01451A
:1050F00081470547D5BD7A873A8F69BD13D84501E9
:10510000B7071000FD1713D746011378F87F930EE9
:10511000F07FB3F8B7002A83F58FFD81328E1377C5
:10512000F77FFD826318D801B3EEA80063850E06F1
:10513000F9550DA86316D701B3EEC700E39A0EFE2A
:10514000631D080433E5A8001335150019E35D8ECF
:1051500015CE11E5638AD50085C9FD5521A0FD5501
:1051600091C2B6852E858280E34807FF6354E8002C
:10517000F5F9E5B7E3E217FF639CF800E36E6EFC18
:10518000E368C3FF8145F9BF8545E9BF65FDE9B720
:10519000E3E0F8FEC5BFE30107FB4DFF014545BF56
:1051A00013D84501B7071000FD1713D74601137830
:1051B000F87F930EF07FB3F8B7002A83F58FFD8157
:1051C000328E1377F77FFD826318D801B3EEA80003
:1051D00063850E0689450DA86316D701B3EEC70097
:1051E000E39A0EFE631D080433E5A800133515008D
:1051F00019E35D8E15CE11E5638AD50085C9FD558D
:1052000021A0FD5591C2B6852E858280E34807FF17
:105210006354E800F5F9E5B7E3E217FF639CF80093
:10522000E36E6EFCE368C3FF8145F9BF8545E9BFC6
:1052300065FDE9B7E3E0F8FEC5BFE30107FB4DFFFD
:10524000014545BF79714ECE93D9450122D426D26E
:1052500052CC56CA5AC89394C50006D64AD05EC6E8
:1052600093F9F97F2A84328BB68AB18013DAF5017B
:10527000638109089307F07F6389F90C9357D5017F
:105280008E04DD8CB7078000DD8C131935009389FF
:1052900019C0814B13D54A011394CA001375F57FC9
:1052A000318093DAFA0161C59307F07F630DF51041
:1052B0009357DB010E045D8CB70780005D8C1305EE
:1052C00015C093173B00014793962B00D98E4E953E
:1052D000FD16B94533465A011308150063E6D5108B
:1052E00097B5FFFF9385C5068A06AE969442AE96A3
:1052F000828633E9A400630309069DC826859710BA
:105300000000E7808099130755FFF14763C9E70262
:10531000F547130985FF998FB3942401B357F4001F
:10532000DD8C331924019309D0C0B389A94095B706
:1053300097100000E780609613050502E9B7930413
:1053400085FDB31494000149F9BF33E9A400630B50
:1053500009002A899309F07F8D4B2DBF8144814933
:10536000854B0DBF81449309F07F894B25B7B36707
:105370006401B5C31DC8228597100000E780E09145
:10538000930655FFF14763CAD7027547930785FF18
:10539000158F3314F4003357EB00598CB317FB000F
:1053A0001307D0C03305A74039BF5A8597100000B6
:1053B000E780A08E13050502E1B7130485FD3314C1
:1053C0008B008147F1BFB367640191CBDA87130586
:1053D000F07F0D47D5BD014401450547F5B50144B2
:1053E0001305F07F0947CDB5416F930EFFFF1357AB
:1053F000090193D807013379D901B3F7D701B385F0
:105400002803B3862703B30FF7023383F50193D53F
:1054100006019A95330E170363F3F5017A9E93D331
:105420000501B3F5D501B3F6D601135F0401B372DC
:10543000D401C205B695B30E5702B38622033309D1
:105440002F033303D90113D906011A993307E70350
:105450006374D90141631A97935E0901C169BA9EC9
:105460001387F9FF3379E900F98E13D40401420957
:10547000F98C369933879702CA933303F402B386C3
:105480009802B3878802B388660093560701C696D0
:1054900063F36600CE9793D80601C169B38FF80015
:1054A0009387F9FFFD8E7D8FB3889202C206BA966C
:1054B000B3075402B3049F0233038F02BE9413D484
:1054C0000801A29463F3F4004E93C167FD1733F70C
:1054D000F400B3F8F80042071E9E469733392E01B8
:1054E000769733042701369EB336DE00B308F40105
:1054F000338FD8003337D70133342401598CC1801E
:10550000B3B8F801B336DF002694B3E6D80036947A
:105510001A9493577F0126045D8C93179E00CD8FBC
:10552000B337F000135E7E0113179F00B3E7C70186
:10553000D98F131774006358070A13D71700858B88
:10554000D98F1317F401D98F05809306F83F635E56
:10555000D00813F7770001CF13F7F70091456308E0
:10556000B70013874700B337F7003E94BA87131785
:10557000740063580700370700FF7D17798C930686
:1055800008401307E07F634CD70E13D737009317FB
:10559000D401D98F0D80320413F7F67F5207318082
:1055A000598C7E063367C400B2502254925402597B
:1055B000F249624AD24A424BB24B3E85BA854561B6
:1055C000828052862684CA875E8789466309D70A05
:1055D0008D46630FD7088546E319D7F60144814706
:1055E0009DA05686DDB72A888DB78545958D130712
:1055F0008003E345B7FE7D476349B7041308E841DC
:1056000033170401B3D6B700B3970701558FB337EB
:10561000F000D98F3354B40013F7770001CF13F79C
:10562000F70091466308D70013874700B337F700A8
:105630003E94BA8713178400634807041317D401F4
:105640008D83D98F0D808146B9B70557158F130506
:1056500000023357E40081466386A5001308E8433F
:10566000B3160401D58FB337F000D98F01446DB75D
:105670003704080081479306F07F014629BF0144A3
:1056800081479306F07F01BF01448147854621B7DA
:10569000411106C622C426C22DC19357F54133C419
:1056A000A7001D8C9354F501228597000000E78028
:1056B000C05E1307E041A947098F63CAA702AD473F
:1056C000898F5505B357F4003314A4002685B2071B
:1056D0001377F77F5207B1837E05D98F33E7A70091
:1056E000B240228522449244BA85410182805515F8
:1056F000B317A40026850144D9BF01478147E5BF00
:10570000411122C406C62A8421C597000000E78003
:10571000C0581307E041A947098F63C6A702AD47E8
:10572000898F5505B357F4003314A4002285B24085
:105730002244B2071377F77F5207B183B3E6E7003D
:10574000B685410182805515B317A4000144F9BF05
:1057500081470147E1BF011106CE22CC26CA4AC8C3
:105760004EC652C4B367B500638607142A842E89D7
:10577000AE84BDC52E8597000000E7800052AA893F
:10578000130AE043330A3A419307304363C747079C
:10579000AD47228563D337039307A00263C937055A
:1057A0009305B002938759FFB3853541B355B400D3
:1057B000B314F900CD8C3315F4009395C400F24076
:1057C0006244137AFA7F520AB181B3E745012A870E
:1057D000D2444249B249224A3A85BE850561828057
:1057E00097000000E780604B9309050251BF938545
:1057F00059FDB314B4000145C9B79307604363D999
:105800004703138689032285CA8597000000E78035
:105810002046C98D2146B334B0002285CA8533069F
:10582000364197000000E780004233E4A4002E894F
:10583000A147228563D437039307700263C63707F5
:1058400093058002938789FFB38535413319F900A9
:10585000B355B40033E925013315F400B70780FFD1
:10586000FD17B375F9009377750081CF9377F50035
:1058700011476388E7009307450033B5A700AA9551
:105880003E859397850063DA0700B70780FFFD1711
:10589000130AF043FD8D330A3A410D819397D501E8
:1058A0005D8D93D4350011BF138989FD331924010F
:1058B00001456DB781440145014A01B701114AC84C
:1058C0001359750126CA4EC656C29314950006CECA
:1058D00022CC52C41379F90FAE8AA5809359F501F1
:1058E000630709069307F00F6302F9088E04B707F0
:1058F0000004DD8C130919F8014A13D57A011394B9
:105900009A001375F50F258093DAFA012DC99307D4
:10591000F00F6305F5080E04B70700045D8C13054E
:1059200015F8814713172A005D8F4A957D17B945F1
:10593000B3C659011306150063EBE50697B5FFFFE3
:105940009385C5A40A072E9718432E9702878DC406
:10595000268597000000E78040349307B5FF1309C0
:10596000A0F8B394F4003309A94079B71309F00FF4
:10597000094AC1D40D4A51B70149054ABDBF0DC4FA
:10598000228597000000E78040319307B5FF33146C
:10599000F4009307A0F83385A74061B71305F00F13
:1059A000894749D08D47BDBF01458547A5BFC16720
:1059B0001383F7FF13D7040193550401B3F4640074
:1059C00033746400B3888402330887023304B70257
:1059D000B385950293D40801C295AE9463F3040194
:1059E0003E94B3F76400C207B3F86800C6971397F4
:1059F0006700C1803337E000E9832694D98F1A0409
:105A00005D8C9317440063D70706935714000588ED
:105A10005D8C1307F6076351E0069377740099C70E
:105A20009377F40091456383B70011049317440002
:105A300063D80700B70700F8FD177D8C1307060829
:105A40009307E00F0D8063DDE70601441307F00FB5
:105A500085A8CE862684D2870947E388E7FE0D47CE
:105A6000638BE7040547E396E7FA0144014789A8F9
:105A7000D686DDB72A8671BF8547998F6D47E34685
:105A8000F7FE1306E609B357F4003314C4003334A9
:105A900080005D8C9377740099C79377F400114769
:105AA0006383E7001104931754000D80E3D007FCD3
:105AB0000144054731A0370440001307F00F814629
:105AC00026041377F70F5E072580598C1395F6018E
:105AD000418DF2406244D2444249B249224A924A3C
:105AE00005618280411106C622C426C2AA8745C923
:105AF0001357F5413344A700198C9354F5012285BF
